{
  "_format": "hh-sol-artifact-1",
  "contractName": "Lottery",
  "sourceName": "contracts/Lottery.sol",
  "abi": [
    {
      "inputs": [],
      "stateMutability": "nonpayable",
      "type": "constructor"
    },
    {
      "inputs": [],
      "name": "admin",
      "outputs": [
        {
          "internalType": "address payable",
          "name": "",
          "type": "address"
        }
      ],
      "stateMutability": "view",
      "type": "function"
    },
    {
      "inputs": [],
      "name": "getBalance",
      "outputs": [
        {
          "internalType": "uint256",
          "name": "",
          "type": "uint256"
        }
      ],
      "stateMutability": "view",
      "type": "function"
    },
    {
      "inputs": [],
      "name": "getFee",
      "outputs": [
        {
          "internalType": "uint256",
          "name": "",
          "type": "uint256"
        }
      ],
      "stateMutability": "view",
      "type": "function"
    },
    {
      "inputs": [],
      "name": "getPlayers",
      "outputs": [
        {
          "internalType": "address payable[]",
          "name": "",
          "type": "address[]"
        }
      ],
      "stateMutability": "view",
      "type": "function"
    },
    {
      "inputs": [],
      "name": "getRandomNumber",
      "outputs": [
        {
          "internalType": "uint256",
          "name": "",
          "type": "uint256"
        }
      ],
      "stateMutability": "view",
      "type": "function"
    },
    {
      "inputs": [],
      "name": "getReward",
      "outputs": [
        {
          "internalType": "uint256",
          "name": "",
          "type": "uint256"
        }
      ],
      "stateMutability": "view",
      "type": "function"
    },
    {
      "inputs": [
        {
          "internalType": "uint256",
          "name": "_bettingNumber",
          "type": "uint256"
        }
      ],
      "name": "play",
      "outputs": [],
      "stateMutability": "payable",
      "type": "function"
    },
    {
      "inputs": [
        {
          "internalType": "uint256",
          "name": "",
          "type": "uint256"
        }
      ],
      "name": "players",
      "outputs": [
        {
          "internalType": "address payable",
          "name": "",
          "type": "address"
        }
      ],
      "stateMutability": "view",
      "type": "function"
    },
    {
      "inputs": [
        {
          "internalType": "uint256",
          "name": "_fee",
          "type": "uint256"
        }
      ],
      "name": "setFee",
      "outputs": [],
      "stateMutability": "nonpayable",
      "type": "function"
    },
    {
      "inputs": [],
      "name": "startNewBid",
      "outputs": [],
      "stateMutability": "nonpayable",
      "type": "function"
    },
    {
      "inputs": [],
      "name": "stopAndChooseWinner",
      "outputs": [],
      "stateMutability": "nonpayable",
      "type": "function"
    }
  ],
  "bytecode": "0x608060405267016345785d8a000060025534801561001c57600080fd5b50336000806101000a81548173ffffffffffffffffffffffffffffffffffffffff021916908373ffffffffffffffffffffffffffffffffffffffff1602179055506001600460006101000a81548160ff021916908360028111156100a9577f4e487b7100000000000000000000000000000000000000000000000000000000600052602160045260246000fd5b02179055506115d0806100bd6000396000f3fe60806040526004361061009c5760003560e01c8063ced72f8711610064578063ced72f8714610167578063cf274f1814610192578063dbdff2c1146101a9578063f71d96cb146101d4578063f851a44014610211578063fc8c31141461023c5761009c565b806312065fe0146100a15780633d18b912146100cc5780636898f82b146100f757806369fe0e2d146101135780638b5b9ccc1461013c575b600080fd5b3480156100ad57600080fd5b506100b6610253565b6040516100c391906111c7565b60405180910390f35b3480156100d857600080fd5b506100e161025b565b6040516100ee91906111c7565b60405180910390f35b610111600480360381019061010c9190610e8f565b61027b565b005b34801561011f57600080fd5b5061013a60048036038101906101359190610e8f565b610547565b005b34801561014857600080fd5b506101516105f2565b60405161015e91906110c5565b60405180910390f35b34801561017357600080fd5b5061017c610680565b60405161018991906111c7565b60405180910390f35b34801561019e57600080fd5b506101a761068a565b005b3480156101b557600080fd5b506101be610b08565b6040516101cb91906111c7565b60405180910390f35b3480156101e057600080fd5b506101fb60048036038101906101f69190610e8f565b610b47565b60405161020891906110aa565b60405180910390f35b34801561021d57600080fd5b50610226610b86565b60405161023391906110aa565b60405180910390f35b34801561024857600080fd5b50610251610baa565b005b600047905090565b6000605a60644761026c919061122c565b610276919061125d565b905090565b600060028111156102b5577f4e487b7100000000000000000000000000000000000000000000000000000000600052602160045260246000fd5b600460009054906101000a900460ff1660028111156102fd577f4e487b7100000000000000000000000000000000000000000000000000000000600052602160045260246000fd5b1461033d576040517f08c379a000000000000000000000000000000000000000000000000000000000815260040161033490611147565b60405180910390fd5b60648110610380576040517f08c379a000000000000000000000000000000000000000000000000000000000815260040161037790611167565b60405180910390fd5b60008054906101000a900473ffffffffffffffffffffffffffffffffffffffff1673ffffffffffffffffffffffffffffffffffffffff163373ffffffffffffffffffffffffffffffffffffffff16141561040f576040517f08c379a000000000000000000000000000000000000000000000000000000000815260040161040690611107565b60405180910390fd5b60646001805490501115610458576040517f08c379a000000000000000000000000000000000000000000000000000000000815260040161044f906110e7565b60405180910390fd5b60025434101561049d576040517f08c379a000000000000000000000000000000000000000000000000000000000815260040161049490611127565b60405180910390fd5b6001339080600181540180825580915050600190039060005260206000200160009091909190916101000a81548173ffffffffffffffffffffffffffffffffffffffff021916908373ffffffffffffffffffffffffffffffffffffffff16021790555080600360003373ffffffffffffffffffffffffffffffffffffffff1673ffffffffffffffffffffffffffffffffffffffff1681526020019081526020016000208190555050565b60008054906101000a900473ffffffffffffffffffffffffffffffffffffffff1673ffffffffffffffffffffffffffffffffffffffff163373ffffffffffffffffffffffffffffffffffffffff16146105d5576040517f08c379a00000000000000000000000000000000000000000000000000000000081526004016105cc906111a7565b60405180910390fd5b67016345785d8a0000816105e9919061125d565b60028190555050565b6060600180548060200260200160405190810160405280929190818152602001828054801561067657602002820191906000526020600020905b8160009054906101000a900473ffffffffffffffffffffffffffffffffffffffff1673ffffffffffffffffffffffffffffffffffffffff168152602001906001019080831161062c575b5050505050905090565b6000600254905090565b60008054906101000a900473ffffffffffffffffffffffffffffffffffffffff1673ffffffffffffffffffffffffffffffffffffffff163373ffffffffffffffffffffffffffffffffffffffff1614610718576040517f08c379a000000000000000000000000000000000000000000000000000000000815260040161070f906111a7565b60405180910390fd5b6001600460006101000a81548160ff02191690836002811115610764577f4e487b7100000000000000000000000000000000000000000000000000000000600052602160045260246000fd5b02179055506000610773610b08565b9050600061077f61025b565b90506000606060005b60018054905081101561093a578460036000600184815481106107d4577f4e487b7100000000000000000000000000000000000000000000000000000000600052603260045260246000fd5b9060005260206000200160009054906101000a900473ffffffffffffffffffffffffffffffffffffffff1673ffffffffffffffffffffffffffffffffffffffff1673ffffffffffffffffffffffffffffffffffffffff168152602001908152602001600020541415610927576001818154811061087a577f4e487b7100000000000000000000000000000000000000000000000000000000600052603260045260246000fd5b9060005260206000200160009054906101000a900473ffffffffffffffffffffffffffffffffffffffff168284815181106108de577f4e487b7100000000000000000000000000000000000000000000000000000000600052603260045260246000fd5b602002602001019073ffffffffffffffffffffffffffffffffffffffff16908173ffffffffffffffffffffffffffffffffffffffff1681525050828061092390611305565b9350505b808061093290611305565b915050610788565b506000815114156109b15760008054906101000a900473ffffffffffffffffffffffffffffffffffffffff1673ffffffffffffffffffffffffffffffffffffffff166108fc849081150290604051600060405180830381858888f193505050501580156109ab573d6000803e3d6000fd5b50610b02565b600181511115610a4857806000815181106109f5577f4e487b7100000000000000000000000000000000000000000000000000000000600052603260045260246000fd5b602002602001015173ffffffffffffffffffffffffffffffffffffffff166108fc849081150290604051600060405180830381858888f19350505050158015610a42573d6000803e3d6000fd5b50610b01565b6000815184610a57919061122c565b905060005b83811015610afe57828481518110610a9d577f4e487b7100000000000000000000000000000000000000000000000000000000600052603260045260246000fd5b602002602001015173ffffffffffffffffffffffffffffffffffffffff166108fc839081150290604051600060405180830381858888f19350505050158015610aea573d6000803e3d6000fd5b508080610af690611305565b915050610a5c565b50505b5b50505050565b600060644233604051602001610b1f92919061107e565b6040516020818303038152906040528051906020012060001c610b42919061137c565b905090565b60018181548110610b5757600080fd5b906000526020600020016000915054906101000a900473ffffffffffffffffffffffffffffffffffffffff1681565b60008054906101000a900473ffffffffffffffffffffffffffffffffffffffff1681565b60008054906101000a900473ffffffffffffffffffffffffffffffffffffffff1673ffffffffffffffffffffffffffffffffffffffff163373ffffffffffffffffffffffffffffffffffffffff1614610c38576040517f08c379a0000000000000000000000000000000000000000000000000000000008152600401610c2f906111a7565b60405180910390fd5b60016002811115610c72577f4e487b7100000000000000000000000000000000000000000000000000000000600052602160045260246000fd5b600460009054906101000a900460ff166002811115610cba577f4e487b7100000000000000000000000000000000000000000000000000000000600052602160045260246000fd5b14610cfa576040517f08c379a0000000000000000000000000000000000000000000000000000000008152600401610cf190611187565b60405180910390fd5b6000600460006101000a81548160ff02191690836002811115610d46577f4e487b7100000000000000000000000000000000000000000000000000000000600052602160045260246000fd5b0217905550600067ffffffffffffffff811115610d8c577f4e487b7100000000000000000000000000000000000000000000000000000000600052604160045260246000fd5b604051908082528060200260200182016040528015610dba5781602001602082028036833780820191505090505b5060019080519060200190610dd0929190610dd3565b50565b828054828255906000526020600020908101928215610e4c579160200282015b82811115610e4b5782518260006101000a81548173ffffffffffffffffffffffffffffffffffffffff021916908373ffffffffffffffffffffffffffffffffffffffff16021790555091602001919060010190610df3565b5b509050610e599190610e5d565b5090565b5b80821115610e76576000816000905550600101610e5e565b5090565b600081359050610e8981611583565b92915050565b600060208284031215610ea157600080fd5b6000610eaf84828501610e7a565b91505092915050565b6000610ec48383610ed0565b60208301905092915050565b610ed9816112c9565b82525050565b610ee8816112c9565b82525050565b610eff610efa826112b7565b61134e565b82525050565b6000610f10826111f2565b610f1a818561120a565b9350610f25836111e2565b8060005b83811015610f56578151610f3d8882610eb8565b9750610f48836111fd565b925050600181019050610f29565b5085935050505092915050565b6000610f7060298361121b565b9150610f7b82611418565b604082019050919050565b6000610f9360198361121b565b9150610f9e82611467565b602082019050919050565b6000610fb660128361121b565b9150610fc182611490565b602082019050919050565b6000610fd9600f8361121b565b9150610fe4826114b9565b602082019050919050565b6000610ffc601c8361121b565b9150611007826114e2565b602082019050919050565b600061101f60158361121b565b915061102a8261150b565b602082019050919050565b600061104260218361121b565b915061104d82611534565b604082019050919050565b611061816112fb565b82525050565b611078611073826112fb565b611372565b82525050565b600061108a8285611067565b60208201915061109a8284610eee565b6014820191508190509392505050565b60006020820190506110bf6000830184610edf565b92915050565b600060208201905081810360008301526110df8184610f05565b905092915050565b6000602082019050818103600083015261110081610f63565b9050919050565b6000602082019050818103600083015261112081610f86565b9050919050565b6000602082019050818103600083015261114081610fa9565b9050919050565b6000602082019050818103600083015261116081610fcc565b9050919050565b6000602082019050818103600083015261118081610fef565b9050919050565b600060208201905081810360008301526111a081611012565b9050919050565b600060208201905081810360008301526111c081611035565b9050919050565b60006020820190506111dc6000830184611058565b92915050565b6000819050602082019050919050565b600081519050919050565b6000602082019050919050565b600082825260208201905092915050565b600082825260208201905092915050565b6000611237826112fb565b9150611242836112fb565b925082611252576112516113dc565b5b828204905092915050565b6000611268826112fb565b9150611273836112fb565b9250817fffffffffffffffffffffffffffffffffffffffffffffffffffffffffffffffff04831182151516156112ac576112ab6113ad565b5b828202905092915050565b60006112c2826112db565b9050919050565b60006112d4826112db565b9050919050565b600073ffffffffffffffffffffffffffffffffffffffff82169050919050565b6000819050919050565b6000611310826112fb565b91507fffffffffffffffffffffffffffffffffffffffffffffffffffffffffffffffff821415611343576113426113ad565b5b600182019050919050565b600061135982611360565b9050919050565b600061136b8261140b565b9050919050565b6000819050919050565b6000611387826112fb565b9150611392836112fb565b9250826113a2576113a16113dc565b5b828206905092915050565b7f4e487b7100000000000000000000000000000000000000000000000000000000600052601160045260246000fd5b7f4e487b7100000000000000000000000000000000000000000000000000000000600052601260045260246000fd5b60008160601b9050919050565b7f4f6e6c792031303020706c617965722063616e20706c6179206174207468652060008201527f73616d652074696d650000000000000000000000000000000000000000000000602082015250565b7f41646d696e2063616e206e6f74206265206120706c6179657200000000000000600082015250565b7f4e6f7420656e6f7567682062616c616e63650000000000000000000000000000600082015250565b7f426574206973206e6f74206f70656e0000000000000000000000000000000000600082015250565b7f42657474696e67206e756d6265722066726f6d203030202d3e20393900000000600082015250565b7f426574206973206e6f7420636c6f736564207965740000000000000000000000600082015250565b7f4f6e6c792061646d696e2063616e2063616c6c20746869732066756e6374696f60008201527f6e00000000000000000000000000000000000000000000000000000000000000602082015250565b61158c816112fb565b811461159757600080fd5b5056fea2646970667358221220ae22c87f81ee50f3e46f7dc015b87a61f6fb8e27d0d858d33b82b1a1791d132664736f6c63430008040033",
  "linkReferences": {},
  "deployedLinkReferences": {}
}